{
  "_format": "hh-sol-artifact-1",
  "contractName": "MessageSender",
  "sourceName": "contracts/MessageSender.sol",
  "abi": [
    {
      "inputs": [
        {
          "internalType": "address",
          "name": "_gateway",
          "type": "address"
        },
        {
          "internalType": "address",
          "name": "_gasReceiver",
          "type": "address"
        }
      ],
      "stateMutability": "nonpayable",
      "type": "constructor"
    },
    {
      "inputs": [
        {
          "internalType": "string",
          "name": "destinationChain",
          "type": "string"
        },
        {
          "internalType": "string",
          "name": "destinationAddress",
          "type": "string"
        },
        {
          "internalType": "address[]",
          "name": "destinationAddresses",
          "type": "address[]"
        },
        {
          "internalType": "string",
          "name": "symbol",
          "type": "string"
        },
        {
          "internalType": "uint256",
          "name": "amount",
          "type": "uint256"
        }
      ],
      "name": "sendToMany",
      "outputs": [],
      "stateMutability": "payable",
      "type": "function"
    }
  ],
  "bytecode": "0x60c060405234801561001057600080fd5b5060405161082938038061082983398101604081905261002f91610062565b6001600160a01b0391821660a05216608052610095565b80516001600160a01b038116811461005d57600080fd5b919050565b6000806040838503121561007557600080fd5b61007e83610046565b915061008c60208401610046565b90509250929050565b60805160a0516107626100c760003960008181606b015281816101c501526103400152600061028001526107626000f3fe60806040526004361061001e5760003560e01c8063fbd9497b14610023575b600080fd5b61003661003136600461040b565b610038565b005b6040517f935b13f60000000000000000000000000000000000000000000000000000000081526000906001600160a01b037f0000000000000000000000000000000000000000000000000000000000000000169063935b13f6906100a29087908790600401610531565b60206040518083038186803b1580156100ba57600080fd5b505afa1580156100ce573d6000803e3d6000fd5b505050506040513d601f19601f820116820180604052508101906100f29190610565565b6040517f23b872dd000000000000000000000000000000000000000000000000000000008152336004820152306024820152604481018490529091506001600160a01b038216906323b872dd90606401602060405180830381600087803b15801561015c57600080fd5b505af1158015610170573d6000803e3d6000fd5b505050506040513d601f19601f820116820180604052508101906101949190610589565b506040517f095ea7b30000000000000000000000000000000000000000000000000000000081526001600160a01b037f0000000000000000000000000000000000000000000000000000000000000000811660048301526024820184905282169063095ea7b390604401602060405180830381600087803b15801561021857600080fd5b505af115801561022c573d6000803e3d6000fd5b505050506040513d601f19601f820116820180604052508101906102509190610589565b50600086866040516020016102669291906105ab565b60408051601f1981840301815291905290503415610310577f00000000000000000000000000000000000000000000000000000000000000006001600160a01b031663c62c200234308e8e8e8e888d8d8d336040518c63ffffffff1660e01b81526004016102dd9a99989796959493929190610646565b6000604051808303818588803b1580156102f657600080fd5b505af115801561030a573d6000803e3d6000fd5b50505050505b6040517fb54170840000000000000000000000000000000000000000000000000000000081526001600160a01b037f0000000000000000000000000000000000000000000000000000000000000000169063b541708490610383908e908e908e908e9088908d908d908d906004016106c6565b600060405180830381600087803b15801561039d57600080fd5b505af11580156103b1573d6000803e3d6000fd5b505050505050505050505050505050565b60008083601f8401126103d457600080fd5b50813567ffffffffffffffff8111156103ec57600080fd5b60208301915083602082850101111561040457600080fd5b9250929050565b600080600080600080600080600060a08a8c03121561042957600080fd5b893567ffffffffffffffff8082111561044157600080fd5b61044d8d838e016103c2565b909b50995060208c013591508082111561046657600080fd5b6104728d838e016103c2565b909950975060408c013591508082111561048b57600080fd5b818c0191508c601f83011261049f57600080fd5b8135818111156104ae57600080fd5b8d60208260051b85010111156104c357600080fd5b6020830197508096505060608c01359150808211156104e157600080fd5b506104ee8c828d016103c2565b9a9d999c50979a9699959894979660800135949350505050565b81835281816020850137506000828201602090810191909152601f909101601f19169091010190565b602081526000610545602083018486610508565b949350505050565b6001600160a01b038116811461056257600080fd5b50565b60006020828403121561057757600080fd5b81516105828161054d565b9392505050565b60006020828403121561059b57600080fd5b8151801515811461058257600080fd5b60208082528181018390526000908460408401835b868110156105ee5782356105d38161054d565b6001600160a01b0316825291830191908301906001016105c0565b509695505050505050565b6000815180845260005b8181101561061f57602081850181015186830182015201610603565b81811115610631576000602083870101525b50601f01601f19169290920160200192915050565b60006001600160a01b03808d16835260e0602084015261066a60e084018c8e610508565b838103604085015261067d818b8d610508565b90508381036060850152610691818a6105f9565b905083810360808501526106a681888a610508565b60a0850196909652509290921660c0909101525098975050505050505050565b60a0815260006106da60a083018a8c610508565b82810360208401526106ed81898b610508565b9050828103604084015261070181886105f9565b90508281036060840152610716818688610508565b915050826080830152999850505050505050505056fea26469706673582212202560d4967598cf28ad5d858fd6da0fce848c49df8db6446740b7459b7e4ee5c464736f6c63430008090033",
  "linkReferences": {},
  "deployedLinkReferences": {}
}