{
  "_format": "hh-sol-artifact-1",
  "contractName": "MessageReceiver",
  "sourceName": "contracts/MessageReceiver.sol",
  "abi": [
    {
      "inputs": [
        {
          "internalType": "address",
          "name": "_gateway",
          "type": "address"
        },
        {
          "internalType": "address",
          "name": "_gasReceiver",
          "type": "address"
        }
      ],
      "stateMutability": "nonpayable",
      "type": "constructor"
    },
    {
      "inputs": [],
      "name": "InvalidAddress",
      "type": "error"
    },
    {
      "inputs": [],
      "name": "NotApprovedByGateway",
      "type": "error"
    },
    {
      "anonymous": false,
      "inputs": [],
      "name": "Executed",
      "type": "event"
    },
    {
      "inputs": [
        {
          "internalType": "bytes32",
          "name": "commandId",
          "type": "bytes32"
        },
        {
          "internalType": "string",
          "name": "sourceChain",
          "type": "string"
        },
        {
          "internalType": "string",
          "name": "sourceAddress",
          "type": "string"
        },
        {
          "internalType": "bytes",
          "name": "payload",
          "type": "bytes"
        }
      ],
      "name": "execute",
      "outputs": [],
      "stateMutability": "nonpayable",
      "type": "function"
    },
    {
      "inputs": [
        {
          "internalType": "bytes32",
          "name": "commandId",
          "type": "bytes32"
        },
        {
          "internalType": "string",
          "name": "sourceChain",
          "type": "string"
        },
        {
          "internalType": "string",
          "name": "sourceAddress",
          "type": "string"
        },
        {
          "internalType": "bytes",
          "name": "payload",
          "type": "bytes"
        },
        {
          "internalType": "string",
          "name": "tokenSymbol",
          "type": "string"
        },
        {
          "internalType": "uint256",
          "name": "amount",
          "type": "uint256"
        }
      ],
      "name": "executeWithToken",
      "outputs": [],
      "stateMutability": "nonpayable",
      "type": "function"
    },
    {
      "inputs": [],
      "name": "gateway",
      "outputs": [
        {
          "internalType": "contract IAxelarGateway",
          "name": "",
          "type": "address"
        }
      ],
      "stateMutability": "view",
      "type": "function"
    }
  ],
  "bytecode": "0x60c060405234801561001057600080fd5b50604051610a25380380610a2583398101604081905261002f9161008b565b816001600160a01b0381166100575760405163e6c4247b60e01b815260040160405180910390fd5b6001600160a01b039081166080521660a052506100be565b80516001600160a01b038116811461008657600080fd5b919050565b6000806040838503121561009e57600080fd5b6100a78361006f565b91506100b56020840161006f565b90509250929050565b60805160a0516109326100f36000396000505060008181604b0152818160fb0152818161021701526102e301526109326000f3fe608060405234801561001057600080fd5b50600436106100415760003560e01c8063116191b6146100465780631a98b2e014610089578063491606581461009e575b600080fd5b61006d7f000000000000000000000000000000000000000000000000000000000000000081565b6040516001600160a01b03909116815260200160405180910390f35b61009c6100973660046104df565b6100b1565b005b61009c6100ac3660046105b9565b6101cd565b600085856040516100c392919061065d565b6040519081900381207f1876eed900000000000000000000000000000000000000000000000000000000825291506001600160a01b037f00000000000000000000000000000000000000000000000000000000000000001690631876eed990610140908e908e908e908e908e9089908d908d908d90600401610696565b602060405180830381600087803b15801561015a57600080fd5b505af115801561016e573d6000803e3d6000fd5b505050506040513d601f19601f8201168201806040525081019061019291906106f5565b6101af57604051631403112d60e21b815260040160405180910390fd5b6101c08a8a8a8a8a8a8a8a8a6102cf565b5050505050505050505050565b600082826040516101df92919061065d565b6040519081900381207f5f6970c300000000000000000000000000000000000000000000000000000000825291506001600160a01b037f00000000000000000000000000000000000000000000000000000000000000001690635f6970c390610256908b908b908b908b908b90899060040161071e565b602060405180830381600087803b15801561027057600080fd5b505af1158015610284573d6000803e3d6000fd5b505050506040513d601f19601f820116820180604052508101906102a891906106f5565b6102c557604051631403112d60e21b815260040160405180910390fd5b5050505050505050565b60006102dd8587018761079d565b905060007f00000000000000000000000000000000000000000000000000000000000000006001600160a01b031663935b13f686866040518363ffffffff1660e01b815260040161032f929190610862565b60206040518083038186803b15801561034757600080fd5b505afa15801561035b573d6000803e3d6000fd5b505050506040513d601f19601f8201168201806040525081019061037f919061087e565b90506000825184610390919061089b565b905060005b835181101561045e57826001600160a01b031663a9059cbb8583815181106103bf576103bf6108bd565b6020026020010151846040518363ffffffff1660e01b81526004016103f99291906001600160a01b03929092168252602082015260400190565b602060405180830381600087803b15801561041357600080fd5b505af1158015610427573d6000803e3d6000fd5b505050506040513d601f19601f8201168201806040525081019061044b91906106f5565b5080610456816108d3565b915050610395565b506040517f68f46c45a243a0e9065a97649faf9a5afe1692f2679e650c2f853b9cd734cc0e90600090a1505050505050505050505050565b60008083601f8401126104a857600080fd5b50813567ffffffffffffffff8111156104c057600080fd5b6020830191508360208285010111156104d857600080fd5b9250929050565b60008060008060008060008060008060c08b8d0312156104fe57600080fd5b8a35995060208b013567ffffffffffffffff8082111561051d57600080fd5b6105298e838f01610496565b909b50995060408d013591508082111561054257600080fd5b61054e8e838f01610496565b909950975060608d013591508082111561056757600080fd5b6105738e838f01610496565b909750955060808d013591508082111561058c57600080fd5b506105998d828e01610496565b9150809450508092505060a08b013590509295989b9194979a5092959850565b60008060008060008060006080888a0312156105d457600080fd5b87359650602088013567ffffffffffffffff808211156105f357600080fd5b6105ff8b838c01610496565b909850965060408a013591508082111561061857600080fd5b6106248b838c01610496565b909650945060608a013591508082111561063d57600080fd5b5061064a8a828b01610496565b989b979a50959850939692959293505050565b8183823760009101908152919050565b81835281816020850137506000828201602090810191909152601f909101601f19169091010190565b89815260c0602082015260006106b060c083018a8c61066d565b82810360408401526106c381898b61066d565b905086606084015282810360808401526106de81868861066d565b9150508260a08301529a9950505050505050505050565b60006020828403121561070757600080fd5b8151801515811461071757600080fd5b9392505050565b86815260806020820152600061073860808301878961066d565b828103604084015261074b81868861066d565b915050826060830152979650505050505050565b634e487b7160e01b600052604160045260246000fd5b6001600160a01b038116811461078a57600080fd5b50565b803561079881610775565b919050565b600060208083850312156107b057600080fd5b823567ffffffffffffffff808211156107c857600080fd5b818501915085601f8301126107dc57600080fd5b8135818111156107ee576107ee61075f565b8060051b604051601f19603f830116810181811085821117156108135761081361075f565b60405291825284820192508381018501918883111561083157600080fd5b938501935b82851015610856576108478561078d565b84529385019392850192610836565b98975050505050505050565b60208152600061087660208301848661066d565b949350505050565b60006020828403121561089057600080fd5b815161071781610775565b6000826108b857634e487b7160e01b600052601260045260246000fd5b500490565b634e487b7160e01b600052603260045260246000fd5b60006000198214156108f557634e487b7160e01b600052601160045260246000fd5b506001019056fea26469706673582212209e38f67f463f4497ae2d656f9897032c33023007f4488fc3471d2b9c20a05fba64736f6c63430008090033",
  "linkReferences": {},
  "deployedLinkReferences": {}
}